{
    "_format": "hh-sol-artifact-1",
    "contractName": "auction",
    "sourceName": "contracts/auction.sol",
    "abi": [
        {
            "inputs": [
                {
                    "internalType": "address",
                    "name": "",
                    "type": "address"
                }
            ],
            "name": "bidders",
            "outputs": [
                {
                    "internalType": "uint256",
                    "name": "",
                    "type": "uint256"
                }
            ],
            "stateMutability": "view",
            "type": "function"
        },
        {
            "inputs": [],
            "name": "make_bid",
            "outputs": [],
            "stateMutability": "payable",
            "type": "function"
        },
        {
            "inputs": [
                {
                    "internalType": "address",
                    "name": "to",
                    "type": "address"
                }
            ],
            "name": "return_money",
            "outputs": [],
            "stateMutability": "payable",
            "type": "function"
        }
    ],
    "bytecode": "0x608060405234801561001057600080fd5b506101af806100206000396000f3fe6080604052600436106100345760003560e01c80630b0e7c661461003957806399e2c7e61461004e578063fcc8f79314610056575b600080fd5b61004c610047366004610123565b610095565b005b61004c6100f0565b34801561006257600080fd5b50610083610071366004610123565b60006020819052908152604090205481565b60405190815260200160405180910390f35b6001600160a01b03811660008181526020819052604080822054905181156108fc0292818181858888f193505050501580156100d5573d6000803e3d6000fd5b506001600160a01b0316600090815260208190526040812055565b600034116100fd57600080fd5b336000908152602081905260408120805434929061011c908490610153565b9091555050565b60006020828403121561013557600080fd5b81356001600160a01b038116811461014c57600080fd5b9392505050565b6000821982111561017457634e487b7160e01b600052601160045260246000fd5b50019056fea2646970667358221220ec2d5d4d453dcf4f535ac4886df581fc1de56c9f8b61b2fa3269bc80ba4b2df164736f6c63430008070033",
    "linkReferences": {},
    "deployedLinkReferences": {}
}